{
  "_format": "hh-sol-artifact-1",
  "contractName": "Cycle",
  "sourceName": "contracts/Cycle.sol",
  "abi": [
    {
      "constant": true,
      "inputs": [],
      "name": "pointPerEngine",
      "outputs": [
        {
          "name": "",
          "type": "uint256"
        }
      ],
      "payable": false,
      "stateMutability": "view",
      "type": "function"
    },
    {
      "constant": true,
      "inputs": [],
      "name": "bias",
      "outputs": [
        {
          "name": "",
          "type": "address"
        }
      ],
      "payable": false,
      "stateMutability": "view",
      "type": "function"
    },
    {
      "constant": false,
      "inputs": [
        {
          "name": "_engine",
          "type": "address"
        }
      ],
      "name": "setEngine",
      "outputs": [],
      "payable": false,
      "stateMutability": "nonpayable",
      "type": "function"
    },
    {
      "constant": false,
      "inputs": [
        {
          "name": "_transferListener",
          "type": "address"
        }
      ],
      "name": "setTransferListener",
      "outputs": [],
      "payable": false,
      "stateMutability": "nonpayable",
      "type": "function"
    },
    {
      "constant": true,
      "inputs": [],
      "name": "signer",
      "outputs": [
        {
          "name": "",
          "type": "address"
        }
      ],
      "payable": false,
      "stateMutability": "view",
      "type": "function"
    },
    {
      "constant": false,
      "inputs": [
        {
          "name": "manager",
          "type": "address"
        }
      ],
      "name": "addManager",
      "outputs": [],
      "payable": false,
      "stateMutability": "nonpayable",
      "type": "function"
    },
    {
      "constant": false,
      "inputs": [
        {
          "name": "level",
          "type": "uint256"
        },
        {
          "name": "speed",
          "type": "uint256"
        }
      ],
      "name": "setLevelToSpeed",
      "outputs": [],
      "payable": false,
      "stateMutability": "nonpayable",
      "type": "function"
    },
    {
      "constant": true,
      "inputs": [],
      "name": "transferListener",
      "outputs": [
        {
          "name": "",
          "type": "address"
        }
      ],
      "payable": false,
      "stateMutability": "view",
      "type": "function"
    },
    {
      "constant": false,
      "inputs": [
        {
          "name": "_signer",
          "type": "address"
        }
      ],
      "name": "setSigner",
      "outputs": [],
      "payable": false,
      "stateMutability": "nonpayable",
      "type": "function"
    },
    {
      "constant": false,
      "inputs": [
        {
          "name": "ids",
          "type": "uint256[]"
        },
        {
          "name": "_startBlocks",
          "type": "uint256[]"
        },
        {
          "name": "_levels",
          "type": "uint256[]"
        }
      ],
      "name": "setLevels",
      "outputs": [],
      "payable": false,
      "stateMutability": "nonpayable",
      "type": "function"
    },
    {
      "constant": false,
      "inputs": [],
      "name": "renounceOwnership",
      "outputs": [],
      "payable": false,
      "stateMutability": "nonpayable",
      "type": "function"
    },
    {
      "constant": true,
      "inputs": [],
      "name": "engineLimit",
      "outputs": [
        {
          "name": "",
          "type": "uint256"
        }
      ],
      "payable": false,
      "stateMutability": "view",
      "type": "function"
    },
    {
      "constant": true,
      "inputs": [],
      "name": "owner",
      "outputs": [
        {
          "name": "",
          "type": "address"
        }
      ],
      "payable": false,
      "stateMutability": "view",
      "type": "function"
    },
    {
      "constant": true,
      "inputs": [],
      "name": "isOwner",
      "outputs": [
        {
          "name": "",
          "type": "bool"
        }
      ],
      "payable": false,
      "stateMutability": "view",
      "type": "function"
    },
    {
      "constant": false,
      "inputs": [
        {
          "name": "id",
          "type": "uint256"
        },
        {
          "name": "startBlock",
          "type": "uint256"
        },
        {
          "name": "level",
          "type": "uint256"
        },
        {
          "name": "signature",
          "type": "bytes"
        }
      ],
      "name": "setLevel",
      "outputs": [],
      "payable": false,
      "stateMutability": "nonpayable",
      "type": "function"
    },
    {
      "constant": false,
      "inputs": [
        {
          "name": "_pointPerEngine",
          "type": "uint256"
        }
      ],
      "name": "setPointPerEngine",
      "outputs": [],
      "payable": false,
      "stateMutability": "nonpayable",
      "type": "function"
    },
    {
      "constant": false,
      "inputs": [
        {
          "name": "_engineLimit",
          "type": "uint256"
        }
      ],
      "name": "setEngineLimit",
      "outputs": [],
      "payable": false,
      "stateMutability": "nonpayable",
      "type": "function"
    },
    {
      "constant": true,
      "inputs": [],
      "name": "startEngineId",
      "outputs": [
        {
          "name": "",
          "type": "uint256"
        }
      ],
      "payable": false,
      "stateMutability": "view",
      "type": "function"
    },
    {
      "constant": true,
      "inputs": [
        {
          "name": "",
          "type": "uint256"
        }
      ],
      "name": "startBlocks",
      "outputs": [
        {
          "name": "",
          "type": "uint256"
        }
      ],
      "payable": false,
      "stateMutability": "view",
      "type": "function"
    },
    {
      "constant": false,
      "inputs": [
        {
          "name": "manager",
          "type": "address"
        }
      ],
      "name": "removeManager",
      "outputs": [],
      "payable": false,
      "stateMutability": "nonpayable",
      "type": "function"
    },
    {
      "constant": true,
      "inputs": [
        {
          "name": "id",
          "type": "uint256"
        }
      ],
      "name": "claimableCount",
      "outputs": [
        {
          "name": "",
          "type": "uint256"
        }
      ],
      "payable": false,
      "stateMutability": "view",
      "type": "function"
    },
    {
      "constant": true,
      "inputs": [
        {
          "name": "",
          "type": "uint256"
        }
      ],
      "name": "levels",
      "outputs": [
        {
          "name": "",
          "type": "uint256"
        }
      ],
      "payable": false,
      "stateMutability": "view",
      "type": "function"
    },
    {
      "constant": false,
      "inputs": [
        {
          "name": "id",
          "type": "uint256"
        }
      ],
      "name": "clear",
      "outputs": [],
      "payable": false,
      "stateMutability": "nonpayable",
      "type": "function"
    },
    {
      "constant": false,
      "inputs": [
        {
          "name": "id",
          "type": "uint256"
        },
        {
          "name": "count",
          "type": "uint256"
        }
      ],
      "name": "claim",
      "outputs": [],
      "payable": false,
      "stateMutability": "nonpayable",
      "type": "function"
    },
    {
      "constant": false,
      "inputs": [
        {
          "name": "_startEngineId",
          "type": "uint256"
        }
      ],
      "name": "setStartEngineId",
      "outputs": [],
      "payable": false,
      "stateMutability": "nonpayable",
      "type": "function"
    },
    {
      "constant": true,
      "inputs": [],
      "name": "engine",
      "outputs": [
        {
          "name": "",
          "type": "address"
        }
      ],
      "payable": false,
      "stateMutability": "view",
      "type": "function"
    },
    {
      "constant": true,
      "inputs": [
        {
          "name": "",
          "type": "uint256"
        }
      ],
      "name": "claimedCount",
      "outputs": [
        {
          "name": "",
          "type": "uint256"
        }
      ],
      "payable": false,
      "stateMutability": "view",
      "type": "function"
    },
    {
      "constant": true,
      "inputs": [
        {
          "name": "",
          "type": "uint256"
        }
      ],
      "name": "levelToSpeed",
      "outputs": [
        {
          "name": "",
          "type": "uint256"
        }
      ],
      "payable": false,
      "stateMutability": "view",
      "type": "function"
    },
    {
      "constant": false,
      "inputs": [
        {
          "name": "newOwner",
          "type": "address"
        }
      ],
      "name": "transferOwnership",
      "outputs": [],
      "payable": false,
      "stateMutability": "nonpayable",
      "type": "function"
    },
    {
      "constant": true,
      "inputs": [
        {
          "name": "",
          "type": "address"
        }
      ],
      "name": "managers",
      "outputs": [
        {
          "name": "",
          "type": "bool"
        }
      ],
      "payable": false,
      "stateMutability": "view",
      "type": "function"
    },
    {
      "inputs": [
        {
          "name": "_bias",
          "type": "address"
        },
        {
          "name": "_signer",
          "type": "address"
        }
      ],
      "payable": false,
      "stateMutability": "nonpayable",
      "type": "constructor"
    },
    {
      "anonymous": false,
      "inputs": [
        {
          "indexed": false,
          "name": "engine",
          "type": "address"
        }
      ],
      "name": "SetEngine",
      "type": "event"
    },
    {
      "anonymous": false,
      "inputs": [
        {
          "indexed": false,
          "name": "startEngineId",
          "type": "uint256"
        }
      ],
      "name": "SetStartEngineId",
      "type": "event"
    },
    {
      "anonymous": false,
      "inputs": [
        {
          "indexed": false,
          "name": "transferListener",
          "type": "address"
        }
      ],
      "name": "SetTransferListener",
      "type": "event"
    },
    {
      "anonymous": false,
      "inputs": [
        {
          "indexed": false,
          "name": "level",
          "type": "uint256"
        },
        {
          "indexed": false,
          "name": "speed",
          "type": "uint256"
        }
      ],
      "name": "SetLevelToSpeed",
      "type": "event"
    },
    {
      "anonymous": false,
      "inputs": [
        {
          "indexed": false,
          "name": "pointPerEngine",
          "type": "uint256"
        }
      ],
      "name": "SetPointPerEngine",
      "type": "event"
    },
    {
      "anonymous": false,
      "inputs": [
        {
          "indexed": false,
          "name": "engineLimit",
          "type": "uint256"
        }
      ],
      "name": "SetEngineLimit",
      "type": "event"
    },
    {
      "anonymous": false,
      "inputs": [
        {
          "indexed": true,
          "name": "signer",
          "type": "address"
        }
      ],
      "name": "SetSigner",
      "type": "event"
    },
    {
      "anonymous": false,
      "inputs": [
        {
          "indexed": true,
          "name": "previousOwner",
          "type": "address"
        },
        {
          "indexed": true,
          "name": "newOwner",
          "type": "address"
        }
      ],
      "name": "OwnershipTransferred",
      "type": "event"
    }
  ],
  "bytecode": "0x608060405262278d00600755619c4060085534801561001d57600080fd5b506040516040806125b58339810180604052604081101561003d57600080fd5b810190808051906020019092919080519060200190929190505050336000806101000a81548173ffffffffffffffffffffffffffffffffffffffff021916908373ffffffffffffffffffffffffffffffffffffffff1602179055506000809054906101000a900473ffffffffffffffffffffffffffffffffffffffff1673ffffffffffffffffffffffffffffffffffffffff16600073ffffffffffffffffffffffffffffffffffffffff167f8be0079c531659141344cd1fd0a4f28419497f9722a3daafe3b4186f6b6457e060405160405180910390a381600160006101000a81548173ffffffffffffffffffffffffffffffffffffffff021916908373ffffffffffffffffffffffffffffffffffffffff16021790555080600960006101000a81548173ffffffffffffffffffffffffffffffffffffffff021916908373ffffffffffffffffffffffffffffffffffffffff16021790555060016006600060018152602001908152602001600020819055506002600660006002815260200190815260200160002081905550600360066000600381526020019081526020016000208190555060046006600060048152602001908152602001600020819055506005600660006005815260200190815260200160002081905550600a6006600060068152602001908152602001600020819055505050612372806102436000396000f3fe608060405234801561001057600080fd5b50600436106101da5760003560e01c80639a25c03a11610104578063c0fe1af8116100a2578063ca998a2d11610071578063ca998a2d14610915578063eaa0f62914610957578063f2fde38b14610999578063fdff9b4d146109dd576101da565b8063c0fe1af814610837578063c349026314610865578063c6421e4a1461089d578063c9d4623f146108cb576101da565b8063a547c6fe116100de578063a547c6fe1461072d578063ac18de431461076f578063ae1f514d146107b3578063b2596a67146107f5576101da565b80639a25c03a146106b35780639d91f011146106e1578063a1f79dd61461070f576101da565b8063538ee0071161017c578063793e27f51161014b578063793e27f5146105505780638da5cb5b1461056e5780638f32d59b146105b857806399c59aed146105da576101da565b8063538ee007146103955780636c19e783146103df57806370706ba914610423578063715018a614610546576101da565b80632376bf3f116101b85780632376bf3f1461028b578063238ac933146102cf5780632d06177a1461031957806337d448a11461035d576101da565b8063023af081146101df578063054816cc146101fd5780630e830e4914610247575b600080fd5b6101e7610a39565b6040518082815260200191505060405180910390f35b610205610a3f565b604051808273ffffffffffffffffffffffffffffffffffffffff1673ffffffffffffffffffffffffffffffffffffffff16815260200191505060405180910390f35b6102896004803603602081101561025d57600080fd5b81019080803573ffffffffffffffffffffffffffffffffffffffff169060200190929190505050610a65565b005b6102cd600480360360208110156102a157600080fd5b81019080803573ffffffffffffffffffffffffffffffffffffffff169060200190929190505050610b86565b005b6102d7610ca7565b604051808273ffffffffffffffffffffffffffffffffffffffff1673ffffffffffffffffffffffffffffffffffffffff16815260200191505060405180910390f35b61035b6004803603602081101561032f57600080fd5b81019080803573ffffffffffffffffffffffffffffffffffffffff169060200190929190505050610ccd565b005b6103936004803603604081101561037357600080fd5b810190808035906020019092919080359060200190929190505050610da2565b005b61039d610e77565b604051808273ffffffffffffffffffffffffffffffffffffffff1673ffffffffffffffffffffffffffffffffffffffff16815260200191505060405180910390f35b610421600480360360208110156103f557600080fd5b81019080803573ffffffffffffffffffffffffffffffffffffffff169060200190929190505050610e9d565b005b6105446004803603606081101561043957600080fd5b810190808035906020019064010000000081111561045657600080fd5b82018360208201111561046857600080fd5b8035906020019184602083028401116401000000008311171561048a57600080fd5b9091929391929390803590602001906401000000008111156104ab57600080fd5b8201836020820111156104bd57600080fd5b803590602001918460208302840111640100000000831117156104df57600080fd5b90919293919293908035906020019064010000000081111561050057600080fd5b82018360208201111561051257600080fd5b8035906020019184602083028401116401000000008311171561053457600080fd5b9091929391929390505050610f9e565b005b61054e6110d8565b005b610558611211565b6040518082815260200191505060405180910390f35b610576611217565b604051808273ffffffffffffffffffffffffffffffffffffffff1673ffffffffffffffffffffffffffffffffffffffff16815260200191505060405180910390f35b6105c0611240565b604051808215151515815260200191505060405180910390f35b6106b1600480360360808110156105f057600080fd5b810190808035906020019092919080359060200190929190803590602001909291908035906020019064010000000081111561062b57600080fd5b82018360208201111561063d57600080fd5b8035906020019184600183028401116401000000008311171561065f57600080fd5b91908080601f016020809104026020016040519081016040528093929190818152602001838380828437600081840152601f19601f820116905080830192505050505050509192919290505050611297565b005b6106df600480360360208110156106c957600080fd5b810190808035906020019092919050505061160b565b005b61070d600480360360208110156106f757600080fd5b81019080803590602001909291905050506116c6565b005b610717611781565b6040518082815260200191505060405180910390f35b6107596004803603602081101561074357600080fd5b8101908080359060200190929190505050611787565b6040518082815260200191505060405180910390f35b6107b16004803603602081101561078557600080fd5b81019080803573ffffffffffffffffffffffffffffffffffffffff16906020019092919050505061179f565b005b6107df600480360360208110156107c957600080fd5b8101908080359060200190929190505050611874565b6040518082815260200191505060405180910390f35b6108216004803603602081101561080b57600080fd5b8101908080359060200190929190505050611946565b6040518082815260200191505060405180910390f35b6108636004803603602081101561084d57600080fd5b810190808035906020019092919050505061195e565b005b61089b6004803603604081101561087b57600080fd5b8101908080359060200190929190803590602001909291905050506119ec565b005b6108c9600480360360208110156108b357600080fd5b8101908080359060200190929190505050611cdc565b005b6108d3611d97565b604051808273ffffffffffffffffffffffffffffffffffffffff1673ffffffffffffffffffffffffffffffffffffffff16815260200191505060405180910390f35b6109416004803603602081101561092b57600080fd5b8101908080359060200190929190505050611dbd565b6040518082815260200191505060405180910390f35b6109836004803603602081101561096d57600080fd5b8101908080359060200190929190505050611dd5565b6040518082815260200191505060405180910390f35b6109db600480360360208110156109af57600080fd5b81019080803573ffffffffffffffffffffffffffffffffffffffff169060200190929190505050611ded565b005b610a1f600480360360208110156109f357600080fd5b81019080803573ffffffffffffffffffffffffffffffffffffffff169060200190929190505050611e73565b604051808215151515815260200191505060405180910390f35b60075481565b600160009054906101000a900473ffffffffffffffffffffffffffffffffffffffff1681565b610a6d611240565b610adf576040517f08c379a00000000000000000000000000000000000000000000000000000000081526004018080602001828103825260208152602001807f4f776e61626c653a2063616c6c6572206973206e6f7420746865206f776e657281525060200191505060405180910390fd5b80600260006101000a81548173ffffffffffffffffffffffffffffffffffffffff021916908373ffffffffffffffffffffffffffffffffffffffff1602179055507f9540b27a7849a6776171454eba547cf7ae768209f4584efd62e6ccf23634a59e81604051808273ffffffffffffffffffffffffffffffffffffffff1673ffffffffffffffffffffffffffffffffffffffff16815260200191505060405180910390a150565b610b8e611240565b610c00576040517f08c379a00000000000000000000000000000000000000000000000000000000081526004018080602001828103825260208152602001807f4f776e61626c653a2063616c6c6572206973206e6f7420746865206f776e657281525060200191505060405180910390fd5b80600460006101000a81548173ffffffffffffffffffffffffffffffffffffffff021916908373ffffffffffffffffffffffffffffffffffffffff1602179055507fa237096100edd6f07bf704028d12450ee445396df93b454a9b03e30529c21f2d81604051808273ffffffffffffffffffffffffffffffffffffffff1673ffffffffffffffffffffffffffffffffffffffff16815260200191505060405180910390a150565b600960009054906101000a900473ffffffffffffffffffffffffffffffffffffffff1681565b610cd5611240565b610d47576040517f08c379a00000000000000000000000000000000000000000000000000000000081526004018080602001828103825260208152602001807f4f776e61626c653a2063616c6c6572206973206e6f7420746865206f776e657281525060200191505060405180910390fd5b6001600560008373ffffffffffffffffffffffffffffffffffffffff1673ffffffffffffffffffffffffffffffffffffffff16815260200190815260200160002060006101000a81548160ff02191690831515021790555050565b610daa611240565b610e1c576040517f08c379a00000000000000000000000000000000000000000000000000000000081526004018080602001828103825260208152602001807f4f776e61626c653a2063616c6c6572206973206e6f7420746865206f776e657281525060200191505060405180910390fd5b8060066000848152602001908152602001600020819055507fa82bdfa34a9efdffcf0963314e295a0794c8a207a511a15e1372243241b6bfb48282604051808381526020018281526020019250505060405180910390a15050565b600460009054906101000a900473ffffffffffffffffffffffffffffffffffffffff1681565b610ea5611240565b610f17576040517f08c379a00000000000000000000000000000000000000000000000000000000081526004018080602001828103825260208152602001807f4f776e61626c653a2063616c6c6572206973206e6f7420746865206f776e657281525060200191505060405180910390fd5b80600960006101000a81548173ffffffffffffffffffffffffffffffffffffffff021916908373ffffffffffffffffffffffffffffffffffffffff1602179055508073ffffffffffffffffffffffffffffffffffffffff167fbb10aee7ef5a307b8097c6a7f2892b909ff1736fd24a6a5260640c185f7153b660405160405180910390a250565b60011515610faa611240565b15151480611008575060011515600560003373ffffffffffffffffffffffffffffffffffffffff1673ffffffffffffffffffffffffffffffffffffffff16815260200190815260200160002060009054906101000a900460ff161515145b61101157600080fd5b83839050868690501461102357600080fd5b81819050868690501461103557600080fd5b600082829050905060008090505b818110156110ce5785858281811061105757fe5b90506020020135600a60008a8a8581811061106e57fe5b9050602002013581526020019081526020016000208190555083838281811061109357fe5b90506020020135600b60008a8a858181106110aa57fe5b90506020020135815260200190815260200160002081905550600181019050611043565b5050505050505050565b6110e0611240565b611152576040517f08c379a00000000000000000000000000000000000000000000000000000000081526004018080602001828103825260208152602001807f4f776e61626c653a2063616c6c6572206973206e6f7420746865206f776e657281525060200191505060405180910390fd5b600073ffffffffffffffffffffffffffffffffffffffff166000809054906101000a900473ffffffffffffffffffffffffffffffffffffffff1673ffffffffffffffffffffffffffffffffffffffff167f8be0079c531659141344cd1fd0a4f28419497f9722a3daafe3b4186f6b6457e060405160405180910390a360008060006101000a81548173ffffffffffffffffffffffffffffffffffffffff021916908373ffffffffffffffffffffffffffffffffffffffff160217905550565b60085481565b60008060009054906101000a900473ffffffffffffffffffffffffffffffffffffffff16905090565b60008060009054906101000a900473ffffffffffffffffffffffffffffffffffffffff1673ffffffffffffffffffffffffffffffffffffffff163373ffffffffffffffffffffffffffffffffffffffff1614905090565b604181511461130e576040517f08c379a00000000000000000000000000000000000000000000000000000000081526004018080602001828103825260188152602001807f696e76616c6964207369676e6174757265206c656e677468000000000000000081525060200191505060405180910390fd5b600033858585604051602001808573ffffffffffffffffffffffffffffffffffffffff1673ffffffffffffffffffffffffffffffffffffffff1660601b815260140184815260200183815260200182815260200194505050505060405160208183030381529060405280519060200120905060008160405160200180807f19457468657265756d205369676e6564204d6573736167653a0a333200000000815250601c0182815260200191505060405160208183030381529060405280519060200120905060008060006020860151925060408601519150606086015160001a90507f7fffffffffffffffffffffffffffffff5d576e7357a4501ddfe92f46681b20a08260001c1115611489576040517f08c379a000000000000000000000000000000000000000000000000000000000815260040180806020018281038252601b8152602001807f696e76616c6964207369676e6174757265202773272076616c7565000000000081525060200191505060405180910390fd5b601b8160ff16148061149e5750601c8160ff16145b611510576040517f08c379a000000000000000000000000000000000000000000000000000000000815260040180806020018281038252601b8152602001807f696e76616c6964207369676e6174757265202776272076616c7565000000000081525060200191505060405180910390fd5b600960009054906101000a900473ffffffffffffffffffffffffffffffffffffffff1673ffffffffffffffffffffffffffffffffffffffff1660018583868660405160008152602001604052604051808581526020018460ff1660ff1681526020018381526020018281526020019450505050506020604051602081039080840390855afa1580156115a6573d6000803e3d6000fd5b5050506020604051035173ffffffffffffffffffffffffffffffffffffffff16146115d057600080fd5b87600a60008b81526020019081526020016000208190555086600b60008b815260200190815260200160002081905550505050505050505050565b611613611240565b611685576040517f08c379a00000000000000000000000000000000000000000000000000000000081526004018080602001828103825260208152602001807f4f776e61626c653a2063616c6c6572206973206e6f7420746865206f776e657281525060200191505060405180910390fd5b806007819055507fb5600e1a35e5ab2e135fa80a44327920a0592da3063f8d8e6d21865960887e51816040518082815260200191505060405180910390a150565b6116ce611240565b611740576040517f08c379a00000000000000000000000000000000000000000000000000000000081526004018080602001828103825260208152602001807f4f776e61626c653a2063616c6c6572206973206e6f7420746865206f776e657281525060200191505060405180910390fd5b806008819055507fb5c5ec8702d6f668c7b43cb19ee39626c6bb6c46e4a42fd24651e12368b6c20d816040518082815260200191505060405180910390a150565b60035481565b600a6020528060005260406000206000915090505481565b6117a7611240565b611819576040517f08c379a00000000000000000000000000000000000000000000000000000000081526004018080602001828103825260208152602001807f4f776e61626c653a2063616c6c6572206973206e6f7420746865206f776e657281525060200191505060405180910390fd5b6000600560008373ffffffffffffffffffffffffffffffffffffffff1673ffffffffffffffffffffffffffffffffffffffff16815260200190815260200160002060006101000a81548160ff02191690831515021790555050565b6000806118d560066000600b6000878152602001908152602001600020548152602001908152602001600020546118c7600a60008781526020019081526020016000205443611e9390919063ffffffff16565b611edd90919063ffffffff16565b90506000611901600754600c600087815260200190815260200160002054611edd90919063ffffffff16565b905080821061193a576119316007546119238385611e9390919063ffffffff16565b611f6390919063ffffffff16565b92505050611941565b6000925050505b919050565b600b6020528060005260406000206000915090505481565b600460009054906101000a900473ffffffffffffffffffffffffffffffffffffffff1673ffffffffffffffffffffffffffffffffffffffff163373ffffffffffffffffffffffffffffffffffffffff16146119b857600080fd5b43600a6000838152602001908152602001600020819055506000600c60008381526020019081526020016000208190555050565b600160009054906101000a900473ffffffffffffffffffffffffffffffffffffffff1673ffffffffffffffffffffffffffffffffffffffff16636352211e836040518263ffffffff1660e01b81526004018082815260200191505060206040518083038186803b158015611a5f57600080fd5b505afa158015611a73573d6000803e3d6000fd5b505050506040513d6020811015611a8957600080fd5b810190808051906020019092919050505073ffffffffffffffffffffffffffffffffffffffff163373ffffffffffffffffffffffffffffffffffffffff1614611ad157600080fd5b6000611b3160066000600b600087815260200190815260200160002054815260200190815260200160002054611b23600a60008781526020019081526020016000205443611e9390919063ffffffff16565b611edd90919063ffffffff16565b90506000611b5d600754600c600087815260200190815260200160002054611edd90919063ffffffff16565b905080821015611b6c57600080fd5b611b9283600c600087815260200190815260200160002054611fad90919063ffffffff16565b600c600086815260200190815260200160002081905550600854611bc184600354611fad90919063ffffffff16565b1115611bcc57600080fd5b60008090505b83811015611cba57600260009054906101000a900473ffffffffffffffffffffffffffffffffffffffff1673ffffffffffffffffffffffffffffffffffffffff166340c10f1933611c2e84600354611fad90919063ffffffff16565b6040518363ffffffff1660e01b8152600401808373ffffffffffffffffffffffffffffffffffffffff1673ffffffffffffffffffffffffffffffffffffffff16815260200182815260200192505050600060405180830381600087803b158015611c9757600080fd5b505af1158015611cab573d6000803e3d6000fd5b50505050600181019050611bd2565b50611cd083600354611fad90919063ffffffff16565b60038190555050505050565b611ce4611240565b611d56576040517f08c379a00000000000000000000000000000000000000000000000000000000081526004018080602001828103825260208152602001807f4f776e61626c653a2063616c6c6572206973206e6f7420746865206f776e657281525060200191505060405180910390fd5b806003819055507f9b9408093dc71f2e4d46d5de61211987484aec76a44208eeece299293c50edca816040518082815260200191505060405180910390a150565b600260009054906101000a900473ffffffffffffffffffffffffffffffffffffffff1681565b600c6020528060005260406000206000915090505481565b60066020528060005260406000206000915090505481565b611df5611240565b611e67576040517f08c379a00000000000000000000000000000000000000000000000000000000081526004018080602001828103825260208152602001807f4f776e61626c653a2063616c6c6572206973206e6f7420746865206f776e657281525060200191505060405180910390fd5b611e7081612035565b50565b60056020528060005260406000206000915054906101000a900460ff1681565b6000611ed583836040518060400160405280601e81526020017f536166654d6174683a207375627472616374696f6e206f766572666c6f770000815250612179565b905092915050565b600080831415611ef05760009050611f5d565b6000828402905082848281611f0157fe5b0414611f58576040517f08c379a00000000000000000000000000000000000000000000000000000000081526004018080602001828103825260218152602001806123266021913960400191505060405180910390fd5b809150505b92915050565b6000611fa583836040518060400160405280601a81526020017f536166654d6174683a206469766973696f6e206279207a65726f000000000000815250612239565b905092915050565b60008082840190508381101561202b576040517f08c379a000000000000000000000000000000000000000000000000000000000815260040180806020018281038252601b8152602001807f536166654d6174683a206164646974696f6e206f766572666c6f77000000000081525060200191505060405180910390fd5b8091505092915050565b600073ffffffffffffffffffffffffffffffffffffffff168173ffffffffffffffffffffffffffffffffffffffff1614156120bb576040517f08c379a00000000000000000000000000000000000000000000000000000000081526004018080602001828103825260268152602001806123006026913960400191505060405180910390fd5b8073ffffffffffffffffffffffffffffffffffffffff166000809054906101000a900473ffffffffffffffffffffffffffffffffffffffff1673ffffffffffffffffffffffffffffffffffffffff167f8be0079c531659141344cd1fd0a4f28419497f9722a3daafe3b4186f6b6457e060405160405180910390a3806000806101000a81548173ffffffffffffffffffffffffffffffffffffffff021916908373ffffffffffffffffffffffffffffffffffffffff16021790555050565b6000838311158290612226576040517f08c379a00000000000000000000000000000000000000000000000000000000081526004018080602001828103825283818151815260200191508051906020019080838360005b838110156121eb5780820151818401526020810190506121d0565b50505050905090810190601f1680156122185780820380516001836020036101000a031916815260200191505b509250505060405180910390fd5b5060008385039050809150509392505050565b600080831182906122e5576040517f08c379a00000000000000000000000000000000000000000000000000000000081526004018080602001828103825283818151815260200191508051906020019080838360005b838110156122aa57808201518184015260208101905061228f565b50505050905090810190601f1680156122d75780820380516001836020036101000a031916815260200191505b509250505060405180910390fd5b5060008385816122f157fe5b04905080915050939250505056fe4f776e61626c653a206e6577206f776e657220697320746865207a65726f2061646472657373536166654d6174683a206d756c7469706c69636174696f6e206f766572666c6f77a165627a7a72305820959ae1ccb27856e02d2f2a9a59f7d7f076e4c8e510533ba507ed9b99d943c3690029",
  "linkReferences": {},
  "deployedLinkReferences": {}
}