{
  "_format": "hh-sol-artifact-1",
  "contractName": "KIP37TokenMock",
  "sourceName": "contracts/klaytn-contracts/mocks/KIP37TokenMock.sol",
  "abi": [
    {
      "constant": true,
      "inputs": [
        {
          "name": "_id",
          "type": "uint256"
        }
      ],
      "name": "paused",
      "outputs": [
        {
          "name": "",
          "type": "bool"
        }
      ],
      "payable": false,
      "stateMutability": "view",
      "type": "function"
    },
    {
      "constant": true,
      "inputs": [
        {
          "name": "account",
          "type": "address"
        },
        {
          "name": "id",
          "type": "uint256"
        }
      ],
      "name": "balanceOf",
      "outputs": [
        {
          "name": "",
          "type": "uint256"
        }
      ],
      "payable": false,
      "stateMutability": "view",
      "type": "function"
    },
    {
      "constant": true,
      "inputs": [
        {
          "name": "interfaceId",
          "type": "bytes4"
        }
      ],
      "name": "supportsInterface",
      "outputs": [
        {
          "name": "",
          "type": "bool"
        }
      ],
      "payable": false,
      "stateMutability": "view",
      "type": "function"
    },
    {
      "constant": true,
      "inputs": [
        {
          "name": "tokenId",
          "type": "uint256"
        }
      ],
      "name": "uri",
      "outputs": [
        {
          "name": "",
          "type": "string"
        }
      ],
      "payable": false,
      "stateMutability": "view",
      "type": "function"
    },
    {
      "constant": false,
      "inputs": [
        {
          "name": "_id",
          "type": "uint256"
        }
      ],
      "name": "pause",
      "outputs": [],
      "payable": false,
      "stateMutability": "nonpayable",
      "type": "function"
    },
    {
      "constant": false,
      "inputs": [
        {
          "name": "from",
          "type": "address"
        },
        {
          "name": "to",
          "type": "address"
        },
        {
          "name": "ids",
          "type": "uint256[]"
        },
        {
          "name": "amounts",
          "type": "uint256[]"
        },
        {
          "name": "data",
          "type": "bytes"
        }
      ],
      "name": "safeBatchTransferFrom",
      "outputs": [],
      "payable": false,
      "stateMutability": "nonpayable",
      "type": "function"
    },
    {
      "constant": false,
      "inputs": [],
      "name": "unpause",
      "outputs": [],
      "payable": false,
      "stateMutability": "nonpayable",
      "type": "function"
    },
    {
      "constant": true,
      "inputs": [
        {
          "name": "account",
          "type": "address"
        }
      ],
      "name": "isPauser",
      "outputs": [
        {
          "name": "",
          "type": "bool"
        }
      ],
      "payable": false,
      "stateMutability": "view",
      "type": "function"
    },
    {
      "constant": false,
      "inputs": [
        {
          "name": "_id",
          "type": "uint256"
        },
        {
          "name": "_initialSupply",
          "type": "uint256"
        },
        {
          "name": "_uri",
          "type": "string"
        }
      ],
      "name": "create",
      "outputs": [
        {
          "name": "",
          "type": "bool"
        }
      ],
      "payable": false,
      "stateMutability": "nonpayable",
      "type": "function"
    },
    {
      "constant": true,
      "inputs": [
        {
          "name": "accounts",
          "type": "address[]"
        },
        {
          "name": "ids",
          "type": "uint256[]"
        }
      ],
      "name": "balanceOfBatch",
      "outputs": [
        {
          "name": "",
          "type": "uint256[]"
        }
      ],
      "payable": false,
      "stateMutability": "view",
      "type": "function"
    },
    {
      "constant": true,
      "inputs": [],
      "name": "paused",
      "outputs": [
        {
          "name": "",
          "type": "bool"
        }
      ],
      "payable": false,
      "stateMutability": "view",
      "type": "function"
    },
    {
      "constant": false,
      "inputs": [
        {
          "name": "account",
          "type": "address"
        },
        {
          "name": "ids",
          "type": "uint256[]"
        },
        {
          "name": "values",
          "type": "uint256[]"
        }
      ],
      "name": "burnBatch",
      "outputs": [],
      "payable": false,
      "stateMutability": "nonpayable",
      "type": "function"
    },
    {
      "constant": false,
      "inputs": [],
      "name": "renouncePauser",
      "outputs": [],
      "payable": false,
      "stateMutability": "nonpayable",
      "type": "function"
    },
    {
      "constant": false,
      "inputs": [
        {
          "name": "account",
          "type": "address"
        }
      ],
      "name": "addPauser",
      "outputs": [],
      "payable": false,
      "stateMutability": "nonpayable",
      "type": "function"
    },
    {
      "constant": false,
      "inputs": [
        {
          "name": "_id",
          "type": "uint256"
        },
        {
          "name": "_to",
          "type": "address"
        },
        {
          "name": "_value",
          "type": "uint256"
        }
      ],
      "name": "mint",
      "outputs": [],
      "payable": false,
      "stateMutability": "nonpayable",
      "type": "function"
    },
    {
      "constant": false,
      "inputs": [],
      "name": "pause",
      "outputs": [],
      "payable": false,
      "stateMutability": "nonpayable",
      "type": "function"
    },
    {
      "constant": false,
      "inputs": [
        {
          "name": "account",
          "type": "address"
        }
      ],
      "name": "addMinter",
      "outputs": [],
      "payable": false,
      "stateMutability": "nonpayable",
      "type": "function"
    },
    {
      "constant": false,
      "inputs": [],
      "name": "renounceMinter",
      "outputs": [],
      "payable": false,
      "stateMutability": "nonpayable",
      "type": "function"
    },
    {
      "constant": false,
      "inputs": [
        {
          "name": "operator",
          "type": "address"
        },
        {
          "name": "approved",
          "type": "bool"
        }
      ],
      "name": "setApprovalForAll",
      "outputs": [],
      "payable": false,
      "stateMutability": "nonpayable",
      "type": "function"
    },
    {
      "constant": true,
      "inputs": [
        {
          "name": "account",
          "type": "address"
        }
      ],
      "name": "isMinter",
      "outputs": [
        {
          "name": "",
          "type": "bool"
        }
      ],
      "payable": false,
      "stateMutability": "view",
      "type": "function"
    },
    {
      "constant": true,
      "inputs": [
        {
          "name": "_tokenId",
          "type": "uint256"
        }
      ],
      "name": "totalSupply",
      "outputs": [
        {
          "name": "",
          "type": "uint256"
        }
      ],
      "payable": false,
      "stateMutability": "view",
      "type": "function"
    },
    {
      "constant": true,
      "inputs": [
        {
          "name": "",
          "type": "uint256"
        }
      ],
      "name": "creators",
      "outputs": [
        {
          "name": "",
          "type": "address"
        }
      ],
      "payable": false,
      "stateMutability": "view",
      "type": "function"
    },
    {
      "constant": false,
      "inputs": [
        {
          "name": "_id",
          "type": "uint256"
        },
        {
          "name": "_toList",
          "type": "address[]"
        },
        {
          "name": "_values",
          "type": "uint256[]"
        }
      ],
      "name": "mint",
      "outputs": [],
      "payable": false,
      "stateMutability": "nonpayable",
      "type": "function"
    },
    {
      "constant": false,
      "inputs": [
        {
          "name": "_to",
          "type": "address"
        },
        {
          "name": "_ids",
          "type": "uint256[]"
        },
        {
          "name": "_values",
          "type": "uint256[]"
        }
      ],
      "name": "mintBatch",
      "outputs": [],
      "payable": false,
      "stateMutability": "nonpayable",
      "type": "function"
    },
    {
      "constant": true,
      "inputs": [
        {
          "name": "account",
          "type": "address"
        },
        {
          "name": "operator",
          "type": "address"
        }
      ],
      "name": "isApprovedForAll",
      "outputs": [
        {
          "name": "",
          "type": "bool"
        }
      ],
      "payable": false,
      "stateMutability": "view",
      "type": "function"
    },
    {
      "constant": false,
      "inputs": [
        {
          "name": "from",
          "type": "address"
        },
        {
          "name": "to",
          "type": "address"
        },
        {
          "name": "id",
          "type": "uint256"
        },
        {
          "name": "amount",
          "type": "uint256"
        },
        {
          "name": "data",
          "type": "bytes"
        }
      ],
      "name": "safeTransferFrom",
      "outputs": [],
      "payable": false,
      "stateMutability": "nonpayable",
      "type": "function"
    },
    {
      "constant": false,
      "inputs": [
        {
          "name": "account",
          "type": "address"
        },
        {
          "name": "id",
          "type": "uint256"
        },
        {
          "name": "value",
          "type": "uint256"
        }
      ],
      "name": "burn",
      "outputs": [],
      "payable": false,
      "stateMutability": "nonpayable",
      "type": "function"
    },
    {
      "constant": false,
      "inputs": [
        {
          "name": "_id",
          "type": "uint256"
        }
      ],
      "name": "unpause",
      "outputs": [],
      "payable": false,
      "stateMutability": "nonpayable",
      "type": "function"
    },
    {
      "inputs": [
        {
          "name": "uri",
          "type": "string"
        }
      ],
      "payable": false,
      "stateMutability": "nonpayable",
      "type": "constructor"
    },
    {
      "anonymous": false,
      "inputs": [
        {
          "indexed": true,
          "name": "account",
          "type": "address"
        }
      ],
      "name": "MinterAdded",
      "type": "event"
    },
    {
      "anonymous": false,
      "inputs": [
        {
          "indexed": true,
          "name": "account",
          "type": "address"
        }
      ],
      "name": "MinterRemoved",
      "type": "event"
    },
    {
      "anonymous": false,
      "inputs": [
        {
          "indexed": false,
          "name": "tokenId",
          "type": "uint256"
        },
        {
          "indexed": false,
          "name": "account",
          "type": "address"
        }
      ],
      "name": "Paused",
      "type": "event"
    },
    {
      "anonymous": false,
      "inputs": [
        {
          "indexed": false,
          "name": "tokenId",
          "type": "uint256"
        },
        {
          "indexed": false,
          "name": "account",
          "type": "address"
        }
      ],
      "name": "Unpaused",
      "type": "event"
    },
    {
      "anonymous": false,
      "inputs": [
        {
          "indexed": false,
          "name": "account",
          "type": "address"
        }
      ],
      "name": "Paused",
      "type": "event"
    },
    {
      "anonymous": false,
      "inputs": [
        {
          "indexed": false,
          "name": "account",
          "type": "address"
        }
      ],
      "name": "Unpaused",
      "type": "event"
    },
    {
      "anonymous": false,
      "inputs": [
        {
          "indexed": true,
          "name": "account",
          "type": "address"
        }
      ],
      "name": "PauserAdded",
      "type": "event"
    },
    {
      "anonymous": false,
      "inputs": [
        {
          "indexed": true,
          "name": "account",
          "type": "address"
        }
      ],
      "name": "PauserRemoved",
      "type": "event"
    },
    {
      "anonymous": false,
      "inputs": [
        {
          "indexed": true,
          "name": "operator",
          "type": "address"
        },
        {
          "indexed": true,
          "name": "from",
          "type": "address"
        },
        {
          "indexed": true,
          "name": "to",
          "type": "address"
        },
        {
          "indexed": false,
          "name": "id",
          "type": "uint256"
        },
        {
          "indexed": false,
          "name": "value",
          "type": "uint256"
        }
      ],
      "name": "TransferSingle",
      "type": "event"
    },
    {
      "anonymous": false,
      "inputs": [
        {
          "indexed": true,
          "name": "operator",
          "type": "address"
        },
        {
          "indexed": true,
          "name": "from",
          "type": "address"
        },
        {
          "indexed": true,
          "name": "to",
          "type": "address"
        },
        {
          "indexed": false,
          "name": "ids",
          "type": "uint256[]"
        },
        {
          "indexed": false,
          "name": "values",
          "type": "uint256[]"
        }
      ],
      "name": "TransferBatch",
      "type": "event"
    },
    {
      "anonymous": false,
      "inputs": [
        {
          "indexed": true,
          "name": "account",
          "type": "address"
        },
        {
          "indexed": true,
          "name": "operator",
          "type": "address"
        },
        {
          "indexed": false,
          "name": "approved",
          "type": "bool"
        }
      ],
      "name": "ApprovalForAll",
      "type": "event"
    },
    {
      "anonymous": false,
      "inputs": [
        {
          "indexed": false,
          "name": "value",
          "type": "string"
        },
        {
          "indexed": true,
          "name": "id",
          "type": "uint256"
        }
      ],
      "name": "URI",
      "type": "event"
    }
  ],
  "bytecode": "0x60806040523480156200001157600080fd5b50604051620059f1380380620059f1833981018060405260208110156200003757600080fd5b8101908080516401000000008111156200005057600080fd5b828101905060208101848111156200006757600080fd5b81518560018202830111640100000000821117156200008557600080fd5b50509291905050508080620000a76301ffc9a760e01b6200017660201b60201c565b620000b8816200027f60201b60201c565b620000d0636433ca1f60e01b6200017660201b60201c565b620000e8630e89341c60e01b6200017660201b60201c565b5062000101639e094e9e60e01b6200017660201b60201c565b62000112336200029b60201b60201c565b6000600660006101000a81548160ff02191690831515021790555062000145630e8ffdb760e01b6200017660201b60201c565b6200015633620002fc60201b60201c565b6200016e63dfd9d9ec60e01b6200017660201b60201c565b5050620005d0565b63ffffffff60e01b817bffffffffffffffffffffffffffffffffffffffffffffffffffffffff1916141562000213576040517f08c379a000000000000000000000000000000000000000000000000000000000815260040180806020018281038252601b8152602001807f4b495031333a20696e76616c696420696e74657266616365206964000000000081525060200191505060405180910390fd5b6001600080837bffffffffffffffffffffffffffffffffffffffffffffffffffffffff19167bffffffffffffffffffffffffffffffffffffffffffffffffffffffff1916815260200190815260200160002060006101000a81548160ff02191690831515021790555050565b80600490805190602001906200029792919062000521565b5050565b620002b68160056200035d60201b62004eed1790919060201c565b8073ffffffffffffffffffffffffffffffffffffffff167f6719d08c1888103bea251a4ed56406bd0c3e69723c8a1686e017e7bbe159b6f860405160405180910390a250565b620003178160086200035d60201b62004eed1790919060201c565b8073ffffffffffffffffffffffffffffffffffffffff167f6ae172837ea30b801fbfcdd4108aa1d5bf8ff775444fd70256b44e6bf3dfc3f660405160405180910390a250565b6200036f82826200044160201b60201c565b15620003e3576040517f08c379a000000000000000000000000000000000000000000000000000000000815260040180806020018281038252601f8152602001807f526f6c65733a206163636f756e7420616c72656164792068617320726f6c650081525060200191505060405180910390fd5b60018260000160008373ffffffffffffffffffffffffffffffffffffffff1673ffffffffffffffffffffffffffffffffffffffff16815260200190815260200160002060006101000a81548160ff0219169083151502179055505050565b60008073ffffffffffffffffffffffffffffffffffffffff168273ffffffffffffffffffffffffffffffffffffffff161415620004ca576040517f08c379a0000000000000000000000000000000000000000000000000000000008152600401808060200182810382526022815260200180620059cf6022913960400191505060405180910390fd5b8260000160008373ffffffffffffffffffffffffffffffffffffffff1673ffffffffffffffffffffffffffffffffffffffff16815260200190815260200160002060009054906101000a900460ff16905092915050565b828054600181600116156101000203166002900490600052602060002090601f016020900481019282601f106200056457805160ff191683800117855562000595565b8280016001018555821562000595579182015b828111156200059457825182559160200191906001019062000577565b5b509050620005a49190620005a8565b5090565b620005cd91905b80821115620005c9576000816000905550600101620005af565b5090565b90565b6153ef80620005e06000396000f3fe608060405234801561001057600080fd5b50600436106101c25760003560e01c8063836a1040116100f9578063cd53d08e11610097578063e985e9c511610071578063e985e9c514610f64578063f242432a14610fe0578063f5298aca146110ef578063fabc1cbc14611147576101c2565b8063cd53d08e14610c34578063cfa84fc114610ca2578063d81d0a1514610df8576101c2565b806398650275116100d35780639865027514610b3c578063a22cb46514610b46578063aa271e1a14610b96578063bd85b03914610bf2576101c2565b8063836a104014610a965780638456cb5914610aee578063983b2d5614610af8576101c2565b806346fbf68e116101665780635c975abb116101405780635c975abb146108ba5780636b20c454146108dc5780636ef8d66d14610a4857806382dc1ec414610a52576101c2565b806346fbf68e146105d65780634b068c78146106325780634e1273f414610719576101c2565b80630e89341c116101a25780630e89341c146102d4578063136439dd1461037b5780632eb2c2d6146103a95780633f4ba83a146105cc576101c2565b8062dde10e146101c7578062fdd58e1461020d57806301ffc9a71461026f575b600080fd5b6101f3600480360360208110156101dd57600080fd5b8101908080359060200190929190505050611175565b604051808215151515815260200191505060405180910390f35b6102596004803603604081101561022357600080fd5b81019080803573ffffffffffffffffffffffffffffffffffffffff1690602001909291908035906020019092919050505061119f565b6040518082815260200191505060405180910390f35b6102ba6004803603602081101561028557600080fd5b8101908080357bffffffffffffffffffffffffffffffffffffffffffffffffffffffff1916906020019092919050505061127f565b604051808215151515815260200191505060405180910390f35b610300600480360360208110156102ea57600080fd5b81019080803590602001909291905050506112e6565b6040518080602001828103825283818151815260200191508051906020019080838360005b83811015610340578082015181840152602081019050610325565b50505050905090810190601f16801561036d5780820380516001836020036101000a031916815260200191505b509250505060405180910390f35b6103a76004803603602081101561039157600080fd5b810190808035906020019092919050505061144d565b005b6105ca600480360360a08110156103bf57600080fd5b81019080803573ffffffffffffffffffffffffffffffffffffffff169060200190929190803573ffffffffffffffffffffffffffffffffffffffff1690602001909291908035906020019064010000000081111561041c57600080fd5b82018360208201111561042e57600080fd5b8035906020019184602083028401116401000000008311171561045057600080fd5b919080806020026020016040519081016040528093929190818152602001838360200280828437600081840152601f19601f820116905080830192505050505050509192919290803590602001906401000000008111156104b057600080fd5b8201836020820111156104c257600080fd5b803590602001918460208302840111640100000000831117156104e457600080fd5b919080806020026020016040519081016040528093929190818152602001838360200280828437600081840152601f19601f8201169050808301925050505050505091929192908035906020019064010000000081111561054457600080fd5b82018360208201111561055657600080fd5b8035906020019184600183028401116401000000008311171561057857600080fd5b91908080601f016020809104026020016040519081016040528093929190818152602001838380828437600081840152601f19601f8201169050808301925050505050505091929192905050506115df565b005b6105d4611ac2565b005b610618600480360360208110156105ec57600080fd5b81019080803573ffffffffffffffffffffffffffffffffffffffff169060200190929190505050611c22565b604051808215151515815260200191505060405180910390f35b6106ff6004803603606081101561064857600080fd5b8101908080359060200190929190803590602001909291908035906020019064010000000081111561067957600080fd5b82018360208201111561068b57600080fd5b803590602001918460018302840111640100000000831117156106ad57600080fd5b91908080601f016020809104026020016040519081016040528093929190818152602001838380828437600081840152601f19601f820116905080830192505050505050509192919290505050611c3f565b604051808215151515815260200191505060405180910390f35b6108636004803603604081101561072f57600080fd5b810190808035906020019064010000000081111561074c57600080fd5b82018360208201111561075e57600080fd5b8035906020019184602083028401116401000000008311171561078057600080fd5b919080806020026020016040519081016040528093929190818152602001838360200280828437600081840152601f19601f820116905080830192505050505050509192919290803590602001906401000000008111156107e057600080fd5b8201836020820111156107f257600080fd5b8035906020019184602083028401116401000000008311171561081457600080fd5b919080806020026020016040519081016040528093929190818152602001838360200280828437600081840152601f19601f820116905080830192505050505050509192919290505050611e5f565b6040518080602001828103825283818151815260200191508051906020019060200280838360005b838110156108a657808201518184015260208101905061088b565b505050509050019250505060405180910390f35b6108c261203d565b604051808215151515815260200191505060405180910390f35b610a46600480360360608110156108f257600080fd5b81019080803573ffffffffffffffffffffffffffffffffffffffff1690602001909291908035906020019064010000000081111561092f57600080fd5b82018360208201111561094157600080fd5b8035906020019184602083028401116401000000008311171561096357600080fd5b919080806020026020016040519081016040528093929190818152602001838360200280828437600081840152601f19601f820116905080830192505050505050509192919290803590602001906401000000008111156109c357600080fd5b8201836020820111156109d557600080fd5b803590602001918460208302840111640100000000831117156109f757600080fd5b919080806020026020016040519081016040528093929190818152602001838360200280828437600081840152601f19601f820116905080830192505050505050509192919290505050612054565b005b610a50612107565b005b610a9460048036036020811015610a6857600080fd5b81019080803573ffffffffffffffffffffffffffffffffffffffff169060200190929190505050612112565b005b610aec60048036036060811015610aac57600080fd5b8101908080359060200190929190803573ffffffffffffffffffffffffffffffffffffffff1690602001909291908035906020019092919050505061217c565b005b610af6612275565b005b610b3a60048036036020811015610b0e57600080fd5b81019080803573ffffffffffffffffffffffffffffffffffffffff1690602001909291905050506123d6565b005b610b44612440565b005b610b9460048036036040811015610b5c57600080fd5b81019080803573ffffffffffffffffffffffffffffffffffffffff16906020019092919080351515906020019092919050505061244b565b005b610bd860048036036020811015610bac57600080fd5b81019080803573ffffffffffffffffffffffffffffffffffffffff1690602001909291905050506125e6565b604051808215151515815260200191505060405180910390f35b610c1e60048036036020811015610c0857600080fd5b8101908080359060200190929190505050612603565b6040518082815260200191505060405180910390f35b610c6060048036036020811015610c4a57600080fd5b8101908080359060200190929190505050612620565b604051808273ffffffffffffffffffffffffffffffffffffffff1673ffffffffffffffffffffffffffffffffffffffff16815260200191505060405180910390f35b610df660048036036060811015610cb857600080fd5b810190808035906020019092919080359060200190640100000000811115610cdf57600080fd5b820183602082011115610cf157600080fd5b80359060200191846020830284011164010000000083111715610d1357600080fd5b919080806020026020016040519081016040528093929190818152602001838360200280828437600081840152601f19601f82011690508083019250505050505050919291929080359060200190640100000000811115610d7357600080fd5b820183602082011115610d8557600080fd5b80359060200191846020830284011164010000000083111715610da757600080fd5b919080806020026020016040519081016040528093929190818152602001838360200280828437600081840152601f19601f820116905080830192505050505050509192919290505050612653565b005b610f6260048036036060811015610e0e57600080fd5b81019080803573ffffffffffffffffffffffffffffffffffffffff16906020019092919080359060200190640100000000811115610e4b57600080fd5b820183602082011115610e5d57600080fd5b80359060200191846020830284011164010000000083111715610e7f57600080fd5b919080806020026020016040519081016040528093929190818152602001838360200280828437600081840152601f19601f82011690508083019250505050505050919291929080359060200190640100000000811115610edf57600080fd5b820183602082011115610ef157600080fd5b80359060200191846020830284011164010000000083111715610f1357600080fd5b919080806020026020016040519081016040528093929190818152602001838360200280828437600081840152601f19601f8201169050808301925050505050505091929192905050506127f3565b005b610fc660048036036040811015610f7a57600080fd5b81019080803573ffffffffffffffffffffffffffffffffffffffff169060200190929190803573ffffffffffffffffffffffffffffffffffffffff16906020019092919050505061291a565b604051808215151515815260200191505060405180910390f35b6110ed600480360360a0811015610ff657600080fd5b81019080803573ffffffffffffffffffffffffffffffffffffffff169060200190929190803573ffffffffffffffffffffffffffffffffffffffff16906020019092919080359060200190929190803590602001909291908035906020019064010000000081111561106757600080fd5b82018360208201111561107957600080fd5b8035906020019184600183028401116401000000008311171561109b57600080fd5b91908080601f016020809104026020016040519081016040528093929190818152602001838380828437600081840152601f19601f8201169050808301925050505050505091929192905050506129ae565b005b6111456004803603606081101561110557600080fd5b81019080803573ffffffffffffffffffffffffffffffffffffffff1690602001909291908035906020019092919080359060200190929190505050612d78565b005b6111736004803603602081101561115d57600080fd5b8101908080359060200190929190505050612e2b565b005b60006007600083815260200190815260200160002060009054906101000a900460ff169050919050565b60008073ffffffffffffffffffffffffffffffffffffffff168373ffffffffffffffffffffffffffffffffffffffff161415611226576040517f08c379a00000000000000000000000000000000000000000000000000000000081526004018080602001828103825260298152602001806151086029913960400191505060405180910390fd5b6001600083815260200190815260200160002060008473ffffffffffffffffffffffffffffffffffffffff1673ffffffffffffffffffffffffffffffffffffffff16815260200190815260200160002054905092915050565b6000806000837bffffffffffffffffffffffffffffffffffffffffffffffffffffffff19167bffffffffffffffffffffffffffffffffffffffffffffffffffffffff1916815260200190815260200160002060009054906101000a900460ff169050919050565b606080600a60008481526020019081526020016000208054600181600116156101000203166002900480601f0160208091040260200160405190810160405280929190818152602001828054600181600116156101000203166002900480156113905780601f1061136557610100808354040283529160200191611390565b820191906000526020600020905b81548152906001019060200180831161137357829003601f168201915b5050505050905060008151146113a95780915050611448565b60048054600181600116156101000203166002900480601f01602080910402602001604051908101604052809291908181526020018280546001816001161561010002031660029004801561143f5780601f106114145761010080835404028352916020019161143f565b820191906000526020600020905b81548152906001019060200180831161142257829003601f168201915b50505050509150505b919050565b61145633611c22565b6114ab576040517f08c379a00000000000000000000000000000000000000000000000000000000081526004018080602001828103825260308152602001806150956030913960400191505060405180910390fd5b600015156007600083815260200190815260200160002060009054906101000a900460ff16151514611545576040517f08c379a000000000000000000000000000000000000000000000000000000000815260040180806020018281038252601d8152602001807f4b495033375061757361626c653a20616c72656164792070617573656400000081525060200191505060405180910390fd5b60016007600083815260200190815260200160002060006101000a81548160ff0219169083151502179055507fabdb1c9133626eb4f8c5f2ec7e3c60a969a2fb148a0c341a3cf6597242c8f8f58133604051808381526020018273ffffffffffffffffffffffffffffffffffffffff1673ffffffffffffffffffffffffffffffffffffffff1681526020019250505060405180910390a150565b8151835114611639576040517f08c379a00000000000000000000000000000000000000000000000000000000081526004018080602001828103825260268152602001806151816026913960400191505060405180910390fd5b600073ffffffffffffffffffffffffffffffffffffffff168473ffffffffffffffffffffffffffffffffffffffff1614156116bf576040517f08c379a000000000000000000000000000000000000000000000000000000000815260040180806020018281038252602381526020018061531a6023913960400191505060405180910390fd5b6116c7612fbd565b73ffffffffffffffffffffffffffffffffffffffff168573ffffffffffffffffffffffffffffffffffffffff16148061170d575061170c85611707612fbd565b61291a565b5b611762576040517f08c379a00000000000000000000000000000000000000000000000000000000081526004018080602001828103825260308152602001806151a76030913960400191505060405180910390fd5b600061176c612fbd565b905061177c818787878787612fc5565b60008090505b845181101561195057600085828151811061179957fe5b6020026020010151905060008583815181106117b157fe5b60200260200101519050611838816040518060600160405280602881526020016151d7602891396001600086815260200190815260200160002060008d73ffffffffffffffffffffffffffffffffffffffff1673ffffffffffffffffffffffffffffffffffffffff168152602001908152602001600020546130d89092919063ffffffff16565b6001600084815260200190815260200160002060008b73ffffffffffffffffffffffffffffffffffffffff1673ffffffffffffffffffffffffffffffffffffffff168152602001908152602001600020819055506118ef816001600085815260200190815260200160002060008b73ffffffffffffffffffffffffffffffffffffffff1673ffffffffffffffffffffffffffffffffffffffff1681526020019081526020016000205461319890919063ffffffff16565b6001600084815260200190815260200160002060008a73ffffffffffffffffffffffffffffffffffffffff1673ffffffffffffffffffffffffffffffffffffffff168152602001908152602001600020819055505050806001019050611782565b508473ffffffffffffffffffffffffffffffffffffffff168673ffffffffffffffffffffffffffffffffffffffff168273ffffffffffffffffffffffffffffffffffffffff167f4a39dc06d4c0dbc64b70af90fd698a233a518aa5d07e595d983b8c0526c8f7fb8787604051808060200180602001838103835285818151815260200191508051906020019060200280838360005b83811015611a005780820151818401526020810190506119e5565b50505050905001838103825284818151815260200191508051906020019060200280838360005b83811015611a42578082015181840152602081019050611a27565b5050505090500194505050505060405180910390a4611a65818787878787613220565b611aba576040517f08c379a000000000000000000000000000000000000000000000000000000000815260040180806020018281038252603681526020018061533d6036913960400191505060405180910390fd5b505050505050565b611acb33611c22565b611b20576040517f08c379a00000000000000000000000000000000000000000000000000000000081526004018080602001828103825260308152602001806150956030913960400191505060405180910390fd5b600660009054906101000a900460ff16611ba2576040517f08c379a00000000000000000000000000000000000000000000000000000000081526004018080602001828103825260148152602001807f5061757361626c653a206e6f742070617573656400000000000000000000000081525060200191505060405180910390fd5b6000600660006101000a81548160ff0219169083151502179055507f5db9ee0a495bf2e6ff9c91a7834c1ba4fdd244a5e8aa4e537bd38aeae4b073aa33604051808273ffffffffffffffffffffffffffffffffffffffff1673ffffffffffffffffffffffffffffffffffffffff16815260200191505060405180910390a1565b6000611c3882600561389890919063ffffffff16565b9050919050565b6000611c4a336125e6565b611c9f576040517f08c379a00000000000000000000000000000000000000000000000000000000081526004018080602001828103825260308152602001806151ff6030913960400191505060405180910390fd5b611ca884613976565b15611d1b576040517f08c379a000000000000000000000000000000000000000000000000000000000815260040180806020018281038252601c8152602001807f4b495033373a20746f6b656e20616c726561647920637265617465640000000081525060200191505060405180910390fd5b336009600086815260200190815260200160002060006101000a81548173ffffffffffffffffffffffffffffffffffffffff021916908373ffffffffffffffffffffffffffffffffffffffff160217905550611d88338585604051806020016040528060008152506139e8565b600082511115611e585781600a60008681526020019081526020016000209080519060200190611db9929190614fc8565b50837f6bb7ff708619ba0610cba295a58592e0451dee2622938c8755667688daf3529b836040518080602001828103825283818151815260200191508051906020019080838360005b83811015611e1d578082015181840152602081019050611e02565b50505050905090810190601f168015611e4a5780820380516001836020036101000a031916815260200191505b509250505060405180910390a25b9392505050565b60608151835114611ebb576040517f08c379a000000000000000000000000000000000000000000000000000000000815260040180806020018281038252602781526020018061506e6027913960400191505060405180910390fd5b60608351604051908082528060200260200182016040528015611eed5781602001602082028038833980820191505090505b50905060008090505b845181101561203257600073ffffffffffffffffffffffffffffffffffffffff16858281518110611f2357fe5b602002602001015173ffffffffffffffffffffffffffffffffffffffff161415611f98576040517f08c379a000000000000000000000000000000000000000000000000000000000815260040180806020018281038252602f815260200180615373602f913960400191505060405180910390fd5b60016000858381518110611fa857fe5b602002602001015181526020019081526020016000206000868381518110611fcc57fe5b602002602001015173ffffffffffffffffffffffffffffffffffffffff1673ffffffffffffffffffffffffffffffffffffffff1681526020019081526020016000205482828151811061201b57fe5b602002602001018181525050806001019050611ef6565b508091505092915050565b6000600660009054906101000a900460ff16905090565b61205c612fbd565b73ffffffffffffffffffffffffffffffffffffffff168373ffffffffffffffffffffffffffffffffffffffff1614806120a257506120a18361209c612fbd565b61291a565b5b6120f7576040517f08c379a00000000000000000000000000000000000000000000000000000000081526004018080602001828103825260278152602001806152f36027913960400191505060405180910390fd5b612102838383613c9a565b505050565b61211033614068565b565b61211b33611c22565b612170576040517f08c379a00000000000000000000000000000000000000000000000000000000081526004018080602001828103825260308152602001806150956030913960400191505060405180910390fd5b612179816140c2565b50565b612185336125e6565b6121da576040517f08c379a00000000000000000000000000000000000000000000000000000000081526004018080602001828103825260308152602001806151ff6030913960400191505060405180910390fd5b6121e383613976565b612255576040517f08c379a00000000000000000000000000000000000000000000000000000000081526004018080602001828103825260188152602001807f4b495033373a206e6f6e6578697374656e7420746f6b656e000000000000000081525060200191505060405180910390fd5b612270828483604051806020016040528060008152506139e8565b505050565b61227e33611c22565b6122d3576040517f08c379a00000000000000000000000000000000000000000000000000000000081526004018080602001828103825260308152602001806150956030913960400191505060405180910390fd5b600660009054906101000a900460ff1615612356576040517f08c379a00000000000000000000000000000000000000000000000000000000081526004018080602001828103825260108152602001807f5061757361626c653a207061757365640000000000000000000000000000000081525060200191505060405180910390fd5b6001600660006101000a81548160ff0219169083151502179055507f62e78cea01bee320cd4e420270b5ea74000d11b0c9f74754ebdbfc544b05a25833604051808273ffffffffffffffffffffffffffffffffffffffff1673ffffffffffffffffffffffffffffffffffffffff16815260200191505060405180910390a1565b6123df336125e6565b612434576040517f08c379a00000000000000000000000000000000000000000000000000000000081526004018080602001828103825260308152602001806151ff6030913960400191505060405180910390fd5b61243d8161411c565b50565b61244933614176565b565b8173ffffffffffffffffffffffffffffffffffffffff1661246a612fbd565b73ffffffffffffffffffffffffffffffffffffffff1614156124d7576040517f08c379a000000000000000000000000000000000000000000000000000000000815260040180806020018281038252602781526020018061527a6027913960400191505060405180910390fd5b80600260006124e4612fbd565b73ffffffffffffffffffffffffffffffffffffffff1673ffffffffffffffffffffffffffffffffffffffff16815260200190815260200160002060008473ffffffffffffffffffffffffffffffffffffffff1673ffffffffffffffffffffffffffffffffffffffff16815260200190815260200160002060006101000a81548160ff0219169083151502179055508173ffffffffffffffffffffffffffffffffffffffff16612591612fbd565b73ffffffffffffffffffffffffffffffffffffffff167f17307eab39ab6107e8899845ad3d59bd9653f200f220920489ca2b5937696c3183604051808215151515815260200191505060405180910390a35050565b60006125fc82600861389890919063ffffffff16565b9050919050565b600060036000838152602001908152602001600020549050919050565b60096020528060005260406000206000915054906101000a900473ffffffffffffffffffffffffffffffffffffffff1681565b61265c336125e6565b6126b1576040517f08c379a00000000000000000000000000000000000000000000000000000000081526004018080602001828103825260308152602001806151ff6030913960400191505060405180910390fd5b6126ba83613976565b61272c576040517f08c379a00000000000000000000000000000000000000000000000000000000081526004018080602001828103825260188152602001807f4b495033373a206e6f6e6578697374656e7420746f6b656e000000000000000081525060200191505060405180910390fd5b8051825114612786576040517f08c379a00000000000000000000000000000000000000000000000000000000081526004018080602001828103825260298152602001806151586029913960400191505060405180910390fd5b60008090505b82518110156127ed5760008382815181106127a357fe5b6020026020010151905060008383815181106127bb57fe5b602002602001015190506127e0828783604051806020016040528060008152506139e8565b505080600101905061278c565b50505050565b6127fc336125e6565b612851576040517f08c379a00000000000000000000000000000000000000000000000000000000081526004018080602001828103825260308152602001806151ff6030913960400191505060405180910390fd5b60008090505b82518110156128f95761287c83828151811061286f57fe5b6020026020010151613976565b6128ee576040517f08c379a00000000000000000000000000000000000000000000000000000000081526004018080602001828103825260188152602001807f4b495033373a206e6f6e6578697374656e7420746f6b656e000000000000000081525060200191505060405180910390fd5b806001019050612857565b50612915838383604051806020016040528060008152506141d0565b505050565b6000600260008473ffffffffffffffffffffffffffffffffffffffff1673ffffffffffffffffffffffffffffffffffffffff16815260200190815260200160002060008373ffffffffffffffffffffffffffffffffffffffff1673ffffffffffffffffffffffffffffffffffffffff16815260200190815260200160002060009054906101000a900460ff16905092915050565b600073ffffffffffffffffffffffffffffffffffffffff168473ffffffffffffffffffffffffffffffffffffffff161415612a34576040517f08c379a000000000000000000000000000000000000000000000000000000000815260040180806020018281038252602381526020018061531a6023913960400191505060405180910390fd5b612a3c612fbd565b73ffffffffffffffffffffffffffffffffffffffff168573ffffffffffffffffffffffffffffffffffffffff161480612a825750612a8185612a7c612fbd565b61291a565b5b612ad7576040517f08c379a00000000000000000000000000000000000000000000000000000000081526004018080602001828103825260278152602001806152f36027913960400191505060405180910390fd5b6000612ae1612fbd565b9050612b01818787612af2886145dd565b612afb886145dd565b87612fc5565b612b7e836040518060600160405280602881526020016151d7602891396001600088815260200190815260200160002060008a73ffffffffffffffffffffffffffffffffffffffff1673ffffffffffffffffffffffffffffffffffffffff168152602001908152602001600020546130d89092919063ffffffff16565b6001600086815260200190815260200160002060008873ffffffffffffffffffffffffffffffffffffffff1673ffffffffffffffffffffffffffffffffffffffff16815260200190815260200160002081905550612c35836001600087815260200190815260200160002060008873ffffffffffffffffffffffffffffffffffffffff1673ffffffffffffffffffffffffffffffffffffffff1681526020019081526020016000205461319890919063ffffffff16565b6001600086815260200190815260200160002060008773ffffffffffffffffffffffffffffffffffffffff1673ffffffffffffffffffffffffffffffffffffffff168152602001908152602001600020819055508473ffffffffffffffffffffffffffffffffffffffff168673ffffffffffffffffffffffffffffffffffffffff168273ffffffffffffffffffffffffffffffffffffffff167fc3d58168c5ae7397731d063d5bbf3d657854427343f4c083240f7aacaa2d0f628787604051808381526020018281526020019250505060405180910390a4612d1b818787878787614636565b612d70576040517f08c379a00000000000000000000000000000000000000000000000000000000081526004018080602001828103825260308152602001806152c36030913960400191505060405180910390fd5b505050505050565b612d80612fbd565b73ffffffffffffffffffffffffffffffffffffffff168373ffffffffffffffffffffffffffffffffffffffff161480612dc65750612dc583612dc0612fbd565b61291a565b5b612e1b576040517f08c379a00000000000000000000000000000000000000000000000000000000081526004018080602001828103825260278152602001806152f36027913960400191505060405180910390fd5b612e26838383614baa565b505050565b612e3433611c22565b612e89576040517f08c379a00000000000000000000000000000000000000000000000000000000081526004018080602001828103825260308152602001806150956030913960400191505060405180910390fd5b600115156007600083815260200190815260200160002060009054906101000a900460ff16151514612f23576040517f08c379a000000000000000000000000000000000000000000000000000000000815260040180806020018281038252601f8152602001807f4b495033375061757361626c653a20616c726561647920756e7061757365640081525060200191505060405180910390fd5b60006007600083815260200190815260200160002060006101000a81548160ff0219169083151502179055507ffe9b5e5216db9de81757f43d20f846bea509c040a560d136b8263dd8cd7642388133604051808381526020018273ffffffffffffffffffffffffffffffffffffffff1673ffffffffffffffffffffffffffffffffffffffff1681526020019250505060405180910390a150565b600033905090565b612fcd61203d565b15613023576040517f08c379a000000000000000000000000000000000000000000000000000000000815260040180806020018281038252602a815260200180615250602a913960400191505060405180910390fd5b60008090505b83518110156130cf57600015156007600086848151811061304657fe5b6020026020010151815260200190815260200160002060009054906101000a900460ff161515146130c2576040517f08c379a00000000000000000000000000000000000000000000000000000000081526004018080602001828103825260228152602001806153a26022913960400191505060405180910390fd5b8080600101915050613029565b50505050505050565b6000838311158290613185576040517f08c379a00000000000000000000000000000000000000000000000000000000081526004018080602001828103825283818151815260200191508051906020019080838360005b8381101561314a57808201518184015260208101905061312f565b50505050905090810190601f1680156131775780820380516001836020036101000a031916815260200191505b509250505060405180910390fd5b5060008385039050809150509392505050565b600080828401905083811015613216576040517f08c379a000000000000000000000000000000000000000000000000000000000815260040180806020018281038252601b8152602001807f536166654d6174683a206164646974696f6e206f766572666c6f77000000000081525060200191505060405180910390fd5b8091505092915050565b60008060606132448773ffffffffffffffffffffffffffffffffffffffff16614e1d565b6132535760019250505061388e565b8673ffffffffffffffffffffffffffffffffffffffff1663bc197c8160e01b8a8a898989604051602401808673ffffffffffffffffffffffffffffffffffffffff1673ffffffffffffffffffffffffffffffffffffffff1681526020018573ffffffffffffffffffffffffffffffffffffffff1673ffffffffffffffffffffffffffffffffffffffff168152602001806020018060200180602001848103845287818151815260200191508051906020019060200280838360005b8381101561332957808201518184015260208101905061330e565b50505050905001848103835286818151815260200191508051906020019060200280838360005b8381101561336b578082015181840152602081019050613350565b50505050905001848103825285818151815260200191508051906020019080838360005b838110156133aa57808201518184015260208101905061338f565b50505050905090810190601f1680156133d75780820380516001836020036101000a031916815260200191505b5098505050505050505050604051602081830303815290604052907bffffffffffffffffffffffffffffffffffffffffffffffffffffffff19166020820180517bffffffffffffffffffffffffffffffffffffffffffffffffffffffff83818316178352505050506040518082805190602001908083835b60208310613472578051825260208201915060208101905060208303925061344f565b6001836020036101000a0380198251168184511680821785525050505050509050019150506000604051808303816000865af19150503d80600081146134d4576040519150601f19603f3d011682016040523d82523d6000602084013e6134d9565b606091505b508092508193505050600081511415801561355d575063bc197c8160e01b7bffffffffffffffffffffffffffffffffffffffffffffffffffffffff191681806020019051602081101561352b57600080fd5b81019080805190602001909291905050507bffffffffffffffffffffffffffffffffffffffffffffffffffffffff1916145b1561356d5760019250505061388e565b8673ffffffffffffffffffffffffffffffffffffffff16639b49e33260e01b8a8a898989604051602401808673ffffffffffffffffffffffffffffffffffffffff1673ffffffffffffffffffffffffffffffffffffffff1681526020018573ffffffffffffffffffffffffffffffffffffffff1673ffffffffffffffffffffffffffffffffffffffff168152602001806020018060200180602001848103845287818151815260200191508051906020019060200280838360005b83811015613643578082015181840152602081019050613628565b50505050905001848103835286818151815260200191508051906020019060200280838360005b8381101561368557808201518184015260208101905061366a565b50505050905001848103825285818151815260200191508051906020019080838360005b838110156136c45780820151818401526020810190506136a9565b50505050905090810190601f1680156136f15780820380516001836020036101000a031916815260200191505b5098505050505050505050604051602081830303815290604052907bffffffffffffffffffffffffffffffffffffffffffffffffffffffff19166020820180517bffffffffffffffffffffffffffffffffffffffffffffffffffffffff83818316178352505050506040518082805190602001908083835b6020831061378c5780518252602082019150602081019050602083039250613769565b6001836020036101000a0380198251168184511680821785525050505050509050019150506000604051808303816000865af19150503d80600081146137ee576040519150601f19603f3d011682016040523d82523d6000602084013e6137f3565b606091505b50809250819350505060008151141580156138775750639b49e33260e01b7bffffffffffffffffffffffffffffffffffffffffffffffffffffffff191681806020019051602081101561384557600080fd5b81019080805190602001909291905050507bffffffffffffffffffffffffffffffffffffffffffffffffffffffff1916145b156138875760019250505061388e565b6000925050505b9695505050505050565b60008073ffffffffffffffffffffffffffffffffffffffff168273ffffffffffffffffffffffffffffffffffffffff16141561391f576040517f08c379a00000000000000000000000000000000000000000000000000000000081526004018080602001828103825260228152602001806152a16022913960400191505060405180910390fd5b8260000160008373ffffffffffffffffffffffffffffffffffffffff1673ffffffffffffffffffffffffffffffffffffffff16815260200190815260200160002060009054906101000a900460ff16905092915050565b6000806009600084815260200190815260200160002060009054906101000a900473ffffffffffffffffffffffffffffffffffffffff169050600073ffffffffffffffffffffffffffffffffffffffff168173ffffffffffffffffffffffffffffffffffffffff161415915050919050565b600073ffffffffffffffffffffffffffffffffffffffff168473ffffffffffffffffffffffffffffffffffffffff161415613a8b576040517f08c379a000000000000000000000000000000000000000000000000000000000815260040180806020018281038252601f8152602001807f4b495033373a206d696e7420746f20746865207a65726f20616464726573730081525060200191505060405180910390fd5b6000613a95612fbd565b9050613ab681600087613aa7886145dd565b613ab0886145dd565b87612fc5565b613b19836001600087815260200190815260200160002060008873ffffffffffffffffffffffffffffffffffffffff1673ffffffffffffffffffffffffffffffffffffffff1681526020019081526020016000205461319890919063ffffffff16565b6001600086815260200190815260200160002060008773ffffffffffffffffffffffffffffffffffffffff1673ffffffffffffffffffffffffffffffffffffffff16815260200190815260200160002081905550613b9383600360008781526020019081526020016000205461319890919063ffffffff16565b60036000868152602001908152602001600020819055508473ffffffffffffffffffffffffffffffffffffffff16600073ffffffffffffffffffffffffffffffffffffffff168273ffffffffffffffffffffffffffffffffffffffff167fc3d58168c5ae7397731d063d5bbf3d657854427343f4c083240f7aacaa2d0f628787604051808381526020018281526020019250505060405180910390a4613c3e81600087878787614636565b613c93576040517f08c379a00000000000000000000000000000000000000000000000000000000081526004018080602001828103825260308152602001806152c36030913960400191505060405180910390fd5b5050505050565b600073ffffffffffffffffffffffffffffffffffffffff168373ffffffffffffffffffffffffffffffffffffffff161415613d20576040517f08c379a00000000000000000000000000000000000000000000000000000000081526004018080602001828103825260218152602001806150e76021913960400191505060405180910390fd5b8051825114613d7a576040517f08c379a00000000000000000000000000000000000000000000000000000000081526004018080602001828103825260268152602001806151816026913960400191505060405180910390fd5b6000613d84612fbd565b9050613da481856000868660405180602001604052806000815250612fc5565b60008090505b8351811015613f5a57613e56838281518110613dc257fe5b60200260200101516040518060600160405280602281526020016150c56022913960016000888681518110613df357fe5b6020026020010151815260200190815260200160002060008973ffffffffffffffffffffffffffffffffffffffff1673ffffffffffffffffffffffffffffffffffffffff168152602001908152602001600020546130d89092919063ffffffff16565b60016000868481518110613e6657fe5b6020026020010151815260200190815260200160002060008773ffffffffffffffffffffffffffffffffffffffff1673ffffffffffffffffffffffffffffffffffffffff16815260200190815260200160002081905550613f23838281518110613ecc57fe5b60200260200101516040518060600160405280602781526020016151316027913960036000888681518110613efd57fe5b60200260200101518152602001908152602001600020546130d89092919063ffffffff16565b60036000868481518110613f3357fe5b60200260200101518152602001908152602001600020819055508080600101915050613daa565b50600073ffffffffffffffffffffffffffffffffffffffff168473ffffffffffffffffffffffffffffffffffffffff168273ffffffffffffffffffffffffffffffffffffffff167f4a39dc06d4c0dbc64b70af90fd698a233a518aa5d07e595d983b8c0526c8f7fb8686604051808060200180602001838103835285818151815260200191508051906020019060200280838360005b8381101561400b578082015181840152602081019050613ff0565b50505050905001838103825284818151815260200191508051906020019060200280838360005b8381101561404d578082015181840152602081019050614032565b5050505090500194505050505060405180910390a450505050565b61407c816005614e3090919063ffffffff16565b8073ffffffffffffffffffffffffffffffffffffffff167fcd265ebaf09df2871cc7bd4133404a235ba12eff2041bb89d9c714a2621c7c7e60405160405180910390a250565b6140d6816005614eed90919063ffffffff16565b8073ffffffffffffffffffffffffffffffffffffffff167f6719d08c1888103bea251a4ed56406bd0c3e69723c8a1686e017e7bbe159b6f860405160405180910390a250565b614130816008614eed90919063ffffffff16565b8073ffffffffffffffffffffffffffffffffffffffff167f6ae172837ea30b801fbfcdd4108aa1d5bf8ff775444fd70256b44e6bf3dfc3f660405160405180910390a250565b61418a816008614e3090919063ffffffff16565b8073ffffffffffffffffffffffffffffffffffffffff167fe94479a9f7e1952cc78f2d6baab678adc1b772d936c6583def489e524cb6669260405160405180910390a250565b600073ffffffffffffffffffffffffffffffffffffffff168473ffffffffffffffffffffffffffffffffffffffff161415614273576040517f08c379a000000000000000000000000000000000000000000000000000000000815260040180806020018281038252601f8152602001807f4b495033373a206d696e7420746f20746865207a65726f20616464726573730081525060200191505060405180910390fd5b81518351146142cd576040517f08c379a00000000000000000000000000000000000000000000000000000000081526004018080602001828103825260268152602001806151816026913960400191505060405180910390fd5b60006142d7612fbd565b90506142e881600087878787612fc5565b60008090505b845181101561446a576143806001600087848151811061430a57fe5b6020026020010151815260200190815260200160002060008873ffffffffffffffffffffffffffffffffffffffff1673ffffffffffffffffffffffffffffffffffffffff1681526020019081526020016000205485838151811061436a57fe5b602002602001015161319890919063ffffffff16565b6001600087848151811061439057fe5b6020026020010151815260200190815260200160002060008873ffffffffffffffffffffffffffffffffffffffff1673ffffffffffffffffffffffffffffffffffffffff16815260200190815260200160002081905550614433600360008784815181106143fa57fe5b602002602001015181526020019081526020016000205485838151811061441d57fe5b602002602001015161319890919063ffffffff16565b6003600087848151811061444357fe5b602002602001015181526020019081526020016000208190555080806001019150506142ee565b508473ffffffffffffffffffffffffffffffffffffffff16600073ffffffffffffffffffffffffffffffffffffffff168273ffffffffffffffffffffffffffffffffffffffff167f4a39dc06d4c0dbc64b70af90fd698a233a518aa5d07e595d983b8c0526c8f7fb8787604051808060200180602001838103835285818151815260200191508051906020019060200280838360005b8381101561451b578082015181840152602081019050614500565b50505050905001838103825284818151815260200191508051906020019060200280838360005b8381101561455d578082015181840152602081019050614542565b5050505090500194505050505060405180910390a461458181600087878787613220565b6145d6576040517f08c379a000000000000000000000000000000000000000000000000000000000815260040180806020018281038252603681526020018061533d6036913960400191505060405180910390fd5b5050505050565b60608060016040519080825280602002602001820160405280156146105781602001602082028038833980820191505090505b509050828160008151811061462157fe5b60200260200101818152505080915050919050565b600080606061465a8773ffffffffffffffffffffffffffffffffffffffff16614e1d565b61466957600192505050614ba0565b8673ffffffffffffffffffffffffffffffffffffffff1663f23a6e6160e01b8a8a898989604051602401808673ffffffffffffffffffffffffffffffffffffffff1673ffffffffffffffffffffffffffffffffffffffff1681526020018573ffffffffffffffffffffffffffffffffffffffff1673ffffffffffffffffffffffffffffffffffffffff16815260200184815260200183815260200180602001828103825283818151815260200191508051906020019080838360005b83811015614740578082015181840152602081019050614725565b50505050905090810190601f16801561476d5780820380516001836020036101000a031916815260200191505b509650505050505050604051602081830303815290604052907bffffffffffffffffffffffffffffffffffffffffffffffffffffffff19166020820180517bffffffffffffffffffffffffffffffffffffffffffffffffffffffff83818316178352505050506040518082805190602001908083835b6020831061480657805182526020820191506020810190506020830392506147e3565b6001836020036101000a0380198251168184511680821785525050505050509050019150506000604051808303816000865af19150503d8060008114614868576040519150601f19603f3d011682016040523d82523d6000602084013e61486d565b606091505b50809250819350505060008151141580156148f1575063f23a6e6160e01b7bffffffffffffffffffffffffffffffffffffffffffffffffffffffff19168180602001905160208110156148bf57600080fd5b81019080805190602001909291905050507bffffffffffffffffffffffffffffffffffffffffffffffffffffffff1916145b1561490157600192505050614ba0565b8673ffffffffffffffffffffffffffffffffffffffff1663e78b332560e01b8a8a898989604051602401808673ffffffffffffffffffffffffffffffffffffffff1673ffffffffffffffffffffffffffffffffffffffff1681526020018573ffffffffffffffffffffffffffffffffffffffff1673ffffffffffffffffffffffffffffffffffffffff16815260200184815260200183815260200180602001828103825283818151815260200191508051906020019080838360005b838110156149d85780820151818401526020810190506149bd565b50505050905090810190601f168015614a055780820380516001836020036101000a031916815260200191505b509650505050505050604051602081830303815290604052907bffffffffffffffffffffffffffffffffffffffffffffffffffffffff19166020820180517bffffffffffffffffffffffffffffffffffffffffffffffffffffffff83818316178352505050506040518082805190602001908083835b60208310614a9e5780518252602082019150602081019050602083039250614a7b565b6001836020036101000a0380198251168184511680821785525050505050509050019150506000604051808303816000865af19150503d8060008114614b00576040519150601f19603f3d011682016040523d82523d6000602084013e614b05565b606091505b5080925081935050506000815114158015614b89575063e78b332560e01b7bffffffffffffffffffffffffffffffffffffffffffffffffffffffff1916818060200190516020811015614b5757600080fd5b81019080805190602001909291905050507bffffffffffffffffffffffffffffffffffffffffffffffffffffffff1916145b15614b9957600192505050614ba0565b6000925050505b9695505050505050565b600073ffffffffffffffffffffffffffffffffffffffff168373ffffffffffffffffffffffffffffffffffffffff161415614c30576040517f08c379a00000000000000000000000000000000000000000000000000000000081526004018080602001828103825260218152602001806150e76021913960400191505060405180910390fd5b6000614c3a612fbd565b9050614c6a81856000614c4c876145dd565b614c55876145dd565b60405180602001604052806000815250612fc5565b614ce7826040518060600160405280602281526020016150c5602291396001600087815260200190815260200160002060008873ffffffffffffffffffffffffffffffffffffffff1673ffffffffffffffffffffffffffffffffffffffff168152602001908152602001600020546130d89092919063ffffffff16565b6001600085815260200190815260200160002060008673ffffffffffffffffffffffffffffffffffffffff1673ffffffffffffffffffffffffffffffffffffffff16815260200190815260200160002081905550614d7b826040518060600160405280602781526020016151316027913960036000878152602001908152602001600020546130d89092919063ffffffff16565b6003600085815260200190815260200160002081905550600073ffffffffffffffffffffffffffffffffffffffff168473ffffffffffffffffffffffffffffffffffffffff168273ffffffffffffffffffffffffffffffffffffffff167fc3d58168c5ae7397731d063d5bbf3d657854427343f4c083240f7aacaa2d0f628686604051808381526020018281526020019250505060405180910390a450505050565b600080823b905060008111915050919050565b614e3a8282613898565b614e8f576040517f08c379a000000000000000000000000000000000000000000000000000000000815260040180806020018281038252602181526020018061522f6021913960400191505060405180910390fd5b60008260000160008373ffffffffffffffffffffffffffffffffffffffff1673ffffffffffffffffffffffffffffffffffffffff16815260200190815260200160002060006101000a81548160ff0219169083151502179055505050565b614ef78282613898565b15614f6a576040517f08c379a000000000000000000000000000000000000000000000000000000000815260040180806020018281038252601f8152602001807f526f6c65733a206163636f756e7420616c72656164792068617320726f6c650081525060200191505060405180910390fd5b60018260000160008373ffffffffffffffffffffffffffffffffffffffff1673ffffffffffffffffffffffffffffffffffffffff16815260200190815260200160002060006101000a81548160ff0219169083151502179055505050565b828054600181600116156101000203166002900490600052602060002090601f016020900481019282601f1061500957805160ff1916838001178555615037565b82800160010185558215615037579182015b8281111561503657825182559160200191906001019061501b565b5b5090506150449190615048565b5090565b61506a91905b8082111561506657600081600090555060010161504e565b5090565b9056fe4b495033373a206163636f756e747320616e6420696473206c656e677468206d69736d61746368506175736572526f6c653a2063616c6c657220646f6573206e6f742068617665207468652050617573657220726f6c654b495033373a206275726e20616d6f756e7420657863656564732062616c616e63654b495033373a206275726e2066726f6d20746865207a65726f20616464726573734b495033373a2062616c616e636520717565727920666f7220746865207a65726f20616464726573734b495033373a206275726e20616d6f756e74206578636565647320746f74616c20737570706c794b495033373a20746f4c69737420616e64205f76616c756573206c656e677468206d69736d617463684b495033373a2069647320616e6420616d6f756e7473206c656e677468206d69736d617463684b495033373a207472616e736665722063616c6c6572206973206e6f74206f776e6572206e6f7220617070726f7665644b495033373a20696e73756666696369656e742062616c616e636520666f72207472616e736665724d696e746572526f6c653a2063616c6c657220646f6573206e6f74206861766520746865204d696e74657220726f6c65526f6c65733a206163636f756e7420646f6573206e6f74206861766520726f6c654b495033375061757361626c653a20746f6b656e207472616e73666572207768696c65207061757365644b495033373a2073657474696e6720617070726f76616c2073746174757320666f722073656c66526f6c65733a206163636f756e7420697320746865207a65726f20616464726573734b495033373a207472616e7366657220746f206e6f6e204b49503337526563656976657220696d706c656d656e7465724b495033373a2063616c6c6572206973206e6f74206f776e6572206e6f7220617070726f7665644b495033373a207472616e7366657220746f20746865207a65726f20616464726573734b495033373a206261746368207472616e7366657220746f206e6f6e204b49503337526563656976657220696d706c656d656e7465724b495033373a2062617463682062616c616e636520717565727920666f7220746865207a65726f20616464726573734b495033375061757361626c653a2074686520746f6b656e20697320706175736564a165627a7a723058206900c7c59c9795ecb3434cd77b28312eebf7a5df70437fb1ee42dbf063d18a1c0029526f6c65733a206163636f756e7420697320746865207a65726f2061646472657373",
  "linkReferences": {},
  "deployedLinkReferences": {}
}